:100000000C946C010C948B010C948B010C948B015F
:100010000C9404020C948B010C948B010C948B01B6
:100020000C948B010C940E020C948B010C948B019C
:100030000C94F70E0C948B010C948B010C948B0197
:100040000C948B010C948B010C948B010C948B0100
:100050000C948B010C948B010C948B010C948B01F0
:100060000C948B010C948B010C9435020C948B0135
:100070000C948B010C948B010C94660E0C94940ED2
:100080000C945C0E0C948B010C948B01084AD73BAA
:100090003BCE016E84BCBFFDC12F3D6C74319ABD57
:1000A00056833DDA3D00C77F11BED9E4BB4C3E917B
:1000B0006BAAAABE000000803F05A84CCDB2D44E6A
:1000C000B93836A9020C50B9918688083CA6AAAA6C
:1000D0002ABE000000803F00C1814001C080410174
:1000E000C0804100C1814001C0804100C181400009
:1000F000C1814001C0804101C0804100C1814000F8
:10010000C1814001C0804100C1814001C0804101E6
:10011000C0804100C1814001C0804100C1814000D8
:10012000C1814001C0804100C1814001C0804101C6
:10013000C0804100C1814000C1814001C0804101B7
:10014000C0804100C1814001C0804100C1814000A8
:10015000C1814001C0804101C0804100C181400097
:10016000C1814001C0804100C1814001C080410186
:10017000C0804100C1814000C1814001C080410177
:10018000C0804100C1814001C0804100C181400068
:10019000C1814001C0804100C1814001C080410156
:1001A000C0804100C1814001C0804100C181400048
:1001B000C1814001C0804101C0804100C181400037
:1001C000C1814001C0804100C1814001C080410126
:1001D000C0804100C1814000C0C101C30302C2C64A
:1001E0000607C705C5C404CC0C0DCD0FCFCE0E0A33
:1001F000CACB0BC90908C8D81819D91BDBDA1A1ED3
:10020000DEDF1FDD1D1CDC14D4D515D71716D6D2A2
:100210001213D311D1D010F03031F133F3F2323662
:10022000F6F737F53534F43CFCFD3DFF3F3EFEFA72
:100230003A3BFB39F9F83828E8E929EB2B2AEAEEB2
:100240002E2FEF2DEDEC2CE42425E527E7E62622E2
:10025000E2E323E12120E0A06061A163A3A2626642
:10026000A6A767A56564A46CACAD6DAF6F6EAEAAB2
:100270006A6BAB69A9A86878B8B979BB7B7ABABE52
:100280007E7FBF7DBDBC7CB47475B577B7B6767222
:10029000B2B373B17170B050909151935352929622
:1002A000565797559594549C5C5D9D5F9F9E5E5AF2
:1002B0009A9B5B99595898884849894B8B8A4A4E32
:1002C0008E8F4F8D4D4C8C44848545874746868262
:1002D000424383418180400011241FBECFEFD0E113
:1002E000DEBFCDBF11E0A0E0B1E0E2E2F0E800E067
:1002F0000BBF02C007900D92A634B107D9F710E1E9
:10030000A6E4B1E001C01D92A337B107E1F70E9456
:10031000A2040C940F400C940000DC0161157105DF
:1003200001F1CA01860F971F4197D8F461507040C0
:1003300012C0FB01EE0FFF1FED5EF44F8081918133
:100340009C938081918111968C93119712966F5F87
:100350007F4F415050404115510559F720E030E0A2
:1003600002C021E030E0C9010895CF93DF93EC0192
:100370006115710509F442C0CA01860F971F4197A4
:10038000E8F52115310521F021303105B9F517C007
:100390006150704010C0FB01EE0FFF1FEC54F54F91
:1003A00080819181988380819181898322966F5F7A
:1003B0007F4F415050404115510569F71CC06150B5
:1003C000704016C0B881A0E0FB01EE0FFF1FEC5497
:1003D000F54FB183A08320813181898190E0282B62
:1003E000392B3183208322966F5F7F4F41505040DD
:1003F0004115510539F720E030E002C021E030E03E
:10040000C901DF91CF9108951F920F920FB60F92FD
:1004100011240F900FBE0F901F9018951F920F92EE
:100420000FB60F9211248F939F9380914B0190915F
:100430004C01019690934C0180934B019F918F91B9
:100440000F900FBE0F901F9018958430910529F0E2
:100450008530910531F0019739F481E080934E01A8
:10046000089581E080934E0108951F920F920FB678
:100470000F920BB60F9211240F931F932F933F935C
:100480004F935F936F937F938F939F93AF93BF939C
:10049000CF93DF93EF93FF9310928900109288001F
:1004A000809186009091870081549F4150F0809107
:1004B00086009091870084569040909387008093A7
:1004C000860080914A01882361F080914A01815021
:1004D00080934A010B9B39C0B0E070E010E0A0E0CF
:1004E00029C12DE83BE0C90160E070E043E050E045
:1004F0000E94E13F23E13BE0C90160E070E04EE192
:1005000050E00E94E13F24EB3AE0C90160E070E076
:100510004EE150E00E94E13F10923E0B10923D0BE5
:100520001092440B1092430B10924A0B1092490BFD
:100530001092500B10924F0B1092560B1092550BBD
:1005400010925C0B10925B0B01C1B0E070E010E008
:10055000A0E040E050E007E0C1E0D0E0642F9A0165
:10056000220F331F240F351FF901EE0FFF1FE35C2D
:10057000F44F80819181892B09F4CDC0423059F12B
:10058000433030F4442371F0413009F07DC016C08F
:10059000443009F460C0443008F450C0453009F0DC
:1005A00073C066C0F901EE0FFF1FE55CF44FE481F4
:1005B000F0E0EF5FFE4F80818F700BC0F901EE0F0E
:1005C000FF1FE55CF44FE481F0E0EF5FFE4F8081B8
:1005D000807FB82B59C0F901EE0FFF1FE55CF44F87
:1005E000E481F0E0EF5FFE4F8081807F182B8091E7
:1005F0005B0B90915C0B892B09F046C0D0935C0B90
:10060000C0935B0B80914C0B90E0882309F491E040
:1006100090935E0B2091590B30915A0B80915E0B99
:10062000882319F48FEF9FEF02C081E090E0820FE2
:10063000931F90935A0B8093590B26C0F901EE0F2C
:10064000FF1FE55CF44FE481F0E0EF5FFE4F808137
:100650008F70182B19C0F901EE0FFF1FE55CF44FE6
:10066000E481F0E0EF5FFE4F8081807FA82B0CC01B
:10067000F901EE0FFF1FE55CF44FE481F0E0EF5F5E
:10068000FE4F8081807F782BFA01EE0FFF1FE40F71
:10069000F51FEE0FFF1FE55CF44F8581882369F09D
:1006A00084818F5F84838481883008F01482FA010A
:1006B000EE0FFF1F6330B1F40BC08481815084833F
:1006C000848187FD0483FA01EE0FFF1F633051F030
:1006D000E40FF51FEE0FFF1FE55CF44F8081918161
:1006E000019609C0E40FF51FEE0FFF1FE55CF44F04
:1006F00080819181019791838083FA01EE0FFF1F22
:10070000E40FF51FEE0FFF1FE35CF44F8081918132
:100710000197918380834F5F5F4F4630510509F009
:100720001DCF80914F018F5F80934F01823014F075
:1007300010924F01BBBB88B3707F8F70782B78BB52
:1007400015BB82B3A07F8F70A82BA2BBFF91EF9146
:10075000DF91CF91BF91AF919F918F917F916F91D9
:100760005F914F913F912F911F910F910F900BBE71
:100770000F900FBE0F901F9018958BE39BE061E0E8
:1007800070E044E250E00E94E83F40E050E061E069
:1007900070E0CA01880F991FDC01A40FB51FAA0FD2
:1007A000BB1FFD01E35CF44F118210822081318177
:1007B0008D5E944FFC0131832083A55CB44F8D91F5
:1007C0009C911197FA01EE0FFF1FE15EF44F9183A8
:1007D000808315968C91882339F0CB01042E02C0BA
:1007E000880F991F0A94E2F780938D0B4F5F5F4F3C
:1007F0004630510571F608958BE39BE061E070E0AF
:1008000044E250E00E94F83F08950F931F93DF9356
:10081000CF9300D000D000D0CDB7DEB78C011A82C4
:1008200019825C834B836115710571F1460F571F67
:100830004232510548F5615070407E836D831CC083
:100840006D817E818B819C81099714F048E003C003
:100850008B819C81482F86E491E00E945114F8011D
:1008600081938F018B819C8108979C838B838D81E1
:100870009E8108969E838D838B819C811816190614
:10088000FCF220E030E002C029813A81C9012696BD
:100890000FB6F894DEBF0FBECDBFCF91DF911F9191
:1008A0000F910895EF92FF920F931F93CF93DF93D1
:1008B0007C0161157105E1F1CA01860F971F4A9706
:1008C000B8F5EA018B010150104021153105A9F05E
:1008D0002130310569F526C0AE01C930D10514F0CB
:1008E00048E050E08DE89BE0B8010E945114F70108
:1008F00081937F01085F1F4F28971C161D0664F324
:1009000014C0F70121917F01AE01C930D10514F067
:1009100048E050E08DE89BE0B8010E941714085FA2
:100920001F4F28971C161D0664F320E030E002C01C
:1009300021E030E0C901DF91CF911F910F91FF902D
:10094000EF9008952F923F924F925F926F927F9215
:100950008F929F92AF92BF92CF92DF92EF92FF92CF
:100960000F931F93DF93CF93CDB7DEB7EA970FB600
:10097000F894DEBF0FBECDBF9FEF9ABB87EF87BB5A
:1009800094BB80EF81BB86E082B91FE010936100C9
:1009900088E4809370001092710088E1E0EEFAE044
:1009A000DF011D928A95E9F72DE63BE0C90160E081
:1009B00070E048E150E00E94E13F2DE83BE0C901D2
:1009C00060E070E043E050E00E94E13F0E94BD0320
:1009D0000E94C23089E091E00E94133589E091E0E5
:1009E0000E94791E0E94F81D80E090E060E070E0B7
:1009F00040E050E00E94591F0E948C1E0E94B12AC4
:100A00000E947F2F88E99AE3909387008093860065
:100A1000109289001092880080E180937D0082E02E
:100A200080938A0085B58D6085BD87B7806887BF54
:100A300013BD80EC80936A0088E089BF88BF7894FA
:100A40002224B2E0BEA381B190E066E0969587953E
:100A50006A95E1F7DD24D394D822EEA1DE16E1F009
:100A60000E94960FDD2029F086EF91E00E944E1043
:100A70000EC06091000180E090E040E000E012ECE8
:100A800021E030E052E0E52EF12C0E948B10892B02
:100A900011F40E94800FDEA2E0EEFAE040E050E0A8
:100AA00081B190E04D5F5F4F042E02C09595879510
:100AB0000A94E2F74350504080FF10C02091460155
:100AC00081E090E0042E02C0880F991F0A94E2F79B
:100AD000282B2093460121E020830FC0209146015E
:100AE00081E090E0042E02C0880F991F0A94E2F77B
:100AF000809582238093460110824F5F5F4F31962D
:100B00004530510569F61092060BF89460E070E0EC
:100B10009B01220F331FF901E60FF71FEE0FFF1F96
:100B2000AF01435C544FDA018D919C912D5E344F9F
:100B3000D90111969C938E93E55CF44F808191814D
:100B4000FB01EE0FFF1FE15EF44F91838083209144
:100B5000060BFA0180819181282B2093060B6F5F91
:100B60007F4F66307105A1F678948091060B90E076
:100B7000882309F491E09093060B8091C00A90912C
:100B8000C10A90932C0B80932B0B80914D018823ED
:100B900061F40E94DA34882341F085E292E00E94F9
:100BA000A837F1E0F0934D0114C080914D018823E6
:100BB00081F00E94DA34882361F40E94913780E04A
:100BC00090E060E070E040E050E00E94591F109219
:100BD0004D0180914E01882301F120EC2A8338EAEF
:100BE0003B831C828BE08D839FEF9E839F8398873E
:100BF00019862A873B871C86A1E0AD87CE01029625
:100C0000BE016A5F7F4FAE01465F5F4F0E94591F72
:100C1000B1E0B0934D0110924E010E94561E882300
:100C2000E1F7F894E2E0E98380914B0190914C0167
:100C300010924C0110924B01789402C00E94B9327C
:100C40008981815089838F5FC9F70E94B10F20E0AD
:100C500030E0283031058CF480918D0B90E0022E2D
:100C600002C0959587950A94E2F7F901E359F44F8C
:100C700080FF18C081E0808316C080918E0B90E0C9
:100C800028503040022E02C0959587950A94E2F7CD
:100C9000285F3F4FF901E359F44F80FF03C091E013
:100CA000908301C010822F5F3F4F2F30310589F6AE
:100CB000F89420E030E0F901ED58F44F808188236A
:100CC000B1F0F901EE0FFF1FE20FF31FEE0FFF1F50
:100CD000DF01A35CB44F81E090E011969C938E936A
:100CE000D901A359B44F8C91E55CF44F85832F5FF4
:100CF0003F4F26303105F9F68091760B882341F07D
:100D00008091520B90E0882309F491E09093520B6C
:100D100078948091C00A9091C10A907084309105B6
:100D200009F4D3C08530910558F48230910509F457
:100D30007EC08330910578F4019709F011C648C050
:100D40008132910539F18C32910509F469C4059716
:100D500009F006C6ADC0F89410923E0B10923D0B00
:100D60001092440B1092430B10924A0B1092490BB5
:100D70001092500B10924F0B1092560B1092550B75
:100D800010925C0B10925B0B1092C10A1092C00A79
:100D90007894E5C5F89480E090E0FC01EE0FFF1F29
:100DA000E80FF91FEE0FFF1FDF01A55CB44F11968E
:100DB0001C921E92E35CF44F1182108201968630E1
:100DC000910559F71092C10A1092C00A7894C7C5CC
:100DD000F89420E030E0F901EE0FFF1FDF01AC5482
:100DE000B54F8D919C91E20FF31FEE0FFF1FDF01B6
:100DF000A35CB44F11969C938E93D901A359B44F21
:100E00008C91E55CF44F85832F5F3F4F2630310591
:100E100011F78091520B90E0882309F491E09093B0
:100E2000520B1092C10A1092C00A789499C5F89496
:100E300020E030E0D901AA0FBB1FA20FB31FAA0FF9
:100E4000BB1FA55CB44F8D919C911197F901EE0FDA
:100E5000FF1FEE53F54F40815181480F591F57FF37
:100E600006C0509541955F4F15961C9203C091E0C6
:100E700015969C93F901EE0FFF1FE20FF31FEE0F83
:100E8000FF1FE35CF44F518340832F5F3F4F2630B9
:100E9000310581F68091520B90E0882309F491E0AE
:100EA0009093520B1092C10A1092C00A789458C5C0
:100EB0008BE39BE061E070E044E250E00E94F83F89
:100EC0001092C10A1092C00A4BC58091060B88236C
:100ED00009F446C5222009F053C28FE19BE064E982
:100EE0007BE020E030E040E050E00E947B16E090A4
:100EF000940BF090950B0091960B1091970BE0924C
:100F00000F0BF092100B0093110B1093120B8091AA
:100F1000980B9091990BA0919A0BB0919B0B809399
:100F2000890B90938A0BA0938B0BB0938C0B8091C1
:100F30009C0B90919D0BA0919E0BB0919F0B809369
:100F40005F0B9093600BA093610BB093620B809149
:100F5000A00B9091A10BA091A20BB091A30B809339
:100F6000DC0A9093DD0AA093DE0AB093DF0A809139
:100F7000A40B9091A50BA091A60BB091A70B809309
:100F8000070B9093080BA093090BB0930A0B809169
:100F9000A80B9091A90BA091AA0BB091AB0B8093D9
:100FA000690B90936A0BA0936B0BB0936C0B8091C1
:100FB000C00A9091C10A90FF1BC06091C20A709153
:100FC000C30A7093030B6093020B882777FD80950B
:100FD000982F0E944F3DA80197010E94E63B609325
:100FE0000B0B70930C0B80930D0B90930E0B14C096
:100FF000C801B7010E941C3D7093030B6093020B64
:1010000080E090E0A0E0B0E080930B0B90930C0B9D
:10101000A0930D0BB0930E0B8091C00A9091C10A62
:1010200091FF21C06091C40A7091C50A7093010BB1
:101030006093000B882777FD8095982F0E944F3D85
:101040002091890B30918A0B40918B0B50918C0B26
:101050000E94E63B6093350B7093360B8093370B01
:101060009093380B1AC06091890B70918A0B809114
:101070008B0B90918C0B0E941C3D7093010B609325
:10108000000B80E090E0A0E0B0E08093350B9093FF
:10109000360BA093370BB093380B8091C00A909118
:1010A000C10A92FF21C06091C60A7091C70A70936D
:1010B000D70A6093D60A882777FD8095982F0E94DB
:1010C0004F3D20915F0B3091600B4091610B50912F
:1010D000620B0E94E63B6093D20A7093D30A80931E
:1010E000D40A9093D50A1AC060915F0B7091600B7F
:1010F0008091610B9091620B0E941C3D7093D70A06
:101100006093D60A80E090E0A0E0B0E08093D20A3D
:101110009093D30AA093D40AB093D50A8091C00AC1
:101120009091C10A93FF21C06091C80A7091C90AC9
:101130007093050B6093040B882777FD8095982F9B
:101140000E944F3D2091DC0A3091DD0A4091DE0A79
:101150005091DF0A0E94E63B6093900B7093910BD5
:101160008093920B9093930B1AC06091DC0A70915C
:10117000DD0A8091DE0A9091DF0A0E941C3D709387
:10118000050B6093040B80E090E0A0E0B0E080935A
:10119000900B9093910BA093920BB093930B809133
:1011A000C00A9091C10A94FF21C06091CA0A70914F
:1011B000CB0A70933A0B6093390B882777FD8095A3
:1011C000982F0E944F3D2091070B3091080B4091C2
:1011D000090B50910A0B0E94E63B6093650B7093DC
:1011E000660B8093670B9093680B1AC06091070B96
:1011F0007091080B8091090B90910A0B0E941C3D85
:1012000070933A0B6093390B80E090E0A0E0B0E07F
:101210008093650B9093660BA093670BB093680B5C
:101220008091C00A9091C10A95FF21C06091CC0ABB
:101230007091CD0A7093640B6093630B882777FDE0
:101240008095982F0E944F3D2091690B30916A0B39
:1012500040916B0B50916C0B0E94E63B6093D80A57
:101260007093D90A8093DA0A9093DB0A1AC06091CE
:10127000690B70916A0B80916B0B90916C0B0E94C3
:101280001C3D7093640B6093630B80E090E0A0E0E2
:10129000B0E08093D80A9093D90AA093DA0AB09369
:1012A000DB0A20910B0B30910C0B40910D0B5091F0
:1012B0000E0BCA01B9010E94683E3B014C0120910E
:1012C000350B3091360B4091370B5091380BCA01DA
:1012D000B9010E94683E5B016C012091D20A3091F5
:1012E000D30A4091D40A5091D50ACA01B9010E948B
:1012F000683E7B018C01C401B301A60195010E94E7
:10130000E73BA80197010E94E73B0E94D53E7B0185
:101310008C0120E030E040E050E00E94AD3C8823AA
:1013200069F48FE692E1A3E8BAE38093310B9093DE
:10133000320BA093330BB093340B10C060E070E01D
:1013400080E89FE3A80197010E94B43C6093310BB1
:101350007093320B8093330B9093340B6091310B6D
:101360007091320B8091330B9091340B2FE632E168
:1013700043E85AE30E945D3E18160CF41FC22AC2CD
:101380008091850B9091860BA091870BB091880B73
:1013900089A79AA7ABA7BCA76091310B7091320BBC
:1013A0008091330B9091340B20E030E040E85FE314
:1013B0000E94E73B9B01AC0169A57AA58BA59CA582
:1013C0000E94AD3C18160CF4BAC2ADB7BEB71E975A
:1013D0000FB6F894BEBF0FBEADBF8DB69EB60894D3
:1013E000811C911C69A57AA58BA59CA520910B0B4E
:1013F00030910C0B40910D0B50910E0B0E94683EEA
:1014000020910F0B3091100B4091110B5091120B4A
:101410000E94E73B6DA77EA78FA798AB69A57AA529
:101420008BA59CA52091350B3091360B4091370B45
:101430005091380B0E94683E2091890B30918A0BA5
:1014400040918B0B50918C0B0E94E73B2B013C0190
:1014500069A57AA58BA59CA52091D20A3091D30AC3
:101460004091D40A5091D50A0E94683E20915F0BAA
:101470003091600B4091610B5091620B0E94E73BF1
:101480007B018C0169A57AA58BA59CA52091900B69
:101490003091910B4091920B5091930B0E94683EBA
:1014A0002091DC0A3091DD0A4091DE0A5091DF0A7A
:1014B0000E94E73B5B016C0169A57AA58BA59CA501
:1014C0002091650B3091660B4091670B5091680B32
:1014D0000E94683E2091070B3091080B4091090B48
:1014E00050910A0B0E94E73BF40160837183828371
:1014F000938369A57AA58BA59CA52091D80A3091E4
:10150000D90A4091DA0A5091DB0A0E94683E209184
:10151000690B30916A0B40916B0B50916C0B0E94E0
:10152000E73BD40114966D937D938D939C9317970D
:1015300080E090E0A0E0B0E0F40180879187A2878E
:10154000B3872EE030E02C0F3D1F358724876DA533
:101550007EA58FA598A9A30192010E944518F89431
:1015600088E99AE39093870080938600DE011E96B7
:1015700020E030E0EDB7FEB73E960FB6F894FEBF20
:101580000FBEEDBFF901EE0FFF1FE20FF31FEE0FCD
:10159000FF1FE55CF44F408151818D919C91119723
:1015A000480F591F57FF05C0509541955F4F158251
:1015B00002C081E08583F901EE0FFF1FE20FF31FE8
:1015C000EE0FFF1FE35CF44F518340832F5F3F4FCB
:1015D000129626303105B1F68091520B90E08823A7
:1015E00009F491E09093520B6091850B7091860BFA
:1015F0008091870B9091880B2091310B3091320BA9
:101600004091330B5091340B0E94E73B6093850B64
:101610007093860B8093870B9093880B7894A0C16E
:101620008091060B882309F49BC1222009F0D5C0C4
:101630006091C20A7091C30AE090C40AF090C50A92
:10164000A090C60AB090C70A6090C80A7090C90AF4
:101650002090CA0A3090CB0AA091CC0AB091CD0A52
:10166000B8A7AFA3EDB7FEB73E970FB6F894FEBF8D
:101670000FBEEDBF2DB73EB72F5F3F4F3AAB29AB43
:10168000882777FD8095982F0E944F3D6BAB7CABF0
:101690008DAB9EAB0027F7FC0095102FC801B7015A
:1016A0000E944F3D6FAB78AF89AF9AAFCC24B7FCA7
:1016B000C094DC2CC601B5010E944F3D7B018C011A
:1016C000882477FC8094982CC401B3010E944F3D7C
:1016D0005B016C01442437FC4094542CC201B101DD
:1016E0000E944F3DA9A9BAA96D937D938D939C93B8
:1016F0001397EFA1F8A5BF01882777FD8095982F54
:101700000E944F3DA9A9BAA914966D937D938D931C
:101710009C93179780E090E0A0E0B0E0E9A9FAA9D7
:1017200080879187A287B3872EE030E02C0F3D1F82
:10173000358724876BA97CA98DA99EA92FA938ADCF
:1017400049AD5AAD0E94451866E070E040E050E0B7
:101750008DB79EB70E960FB6F8949EBF0FBE8DBF85
:10176000FB01EE0FFF1FED5EF44F20813181FA0186
:10177000E45AFE4F31832083DA01A05BBE4FEEE0D6
:10178000F0E0EC0FFD1FE40FF51F80819181821BBB
:10179000930B8D939C936F5F7F4F4E5F5F4F6C30C9
:1017A0007105F1F680E090E0A0E0B0E08093850B59
:1017B0009093860BA093870BB093880B8FE692E1F2
:1017C000A3E8BAE38093310B9093320BA093330BD1
:1017D000B093340B22242394C3C06090850B709087
:1017E000860B8090870B9090880B6091310B7091E5
:1017F000320B8091330B9091340B20E030E040E8C5
:101800005FE30E94E73B9B01AC01C401B3010E946E
:10181000AD3C18160CF493C0AA24BB242AE1C22EB6
:10182000D12CCC0EDD1ECA0CDB1CF501E45AFE4F98
:1018300060817181882777FD8095982F0E944F3DA8
:101840007B018C01F501E05BFE4F6081718188278F
:1018500077FD8095982F0E944F3D9B01AC01C401FC
:10186000B3010E94683E9B01AC01C801B7010E9410
:10187000E73B0E941C3DD6016D937C93E2E0F0E0D3
:10188000AE0EBF1EFCE0AF16B10441F6F89428E995
:101890003AE33093870020938600DE015A9620E0D9
:1018A00030E0F901EE0FFF1FE20FF31FEE0FFF1FF5
:1018B000E55CF44F408151818D919C911197480FC7
:1018C000591F57FF05C0509541955F4F158202C0C3
:1018D00081E08583F901EE0FFF1FE20FF31FEE0F8A
:1018E000FF1FE35CF44F518340832F5F3F4F1296FD
:1018F00026303105B1F68091520B90E0882309F42F
:1019000091E09093520B78946091850B7091860BC7
:101910008091870B9091880B2091310B3091320B85
:101920004091330B5091340B0E94E73B6093850B41
:101930007093860B8093870B9093880B11C0109245
:10194000C10A1092C00A80E090E0A0E0B0E080936D
:10195000850B9093860BA093870BB093880B222462
:1019600060913B0B70913C0B882777FD8095982FF9
:101970000E944F3D2BE933E140EF54E40E945D3E6D
:10198000181634F480E897E090933C0B80933B0B5F
:1019900060913B0B70913C0B882777FD8095982FC9
:1019A0000E944F3D2BE933E140EF54EC0E94AD3CE7
:1019B000882334F480E898EF90933C0B80933B0BA2
:1019C0006091410B7091420B882777FD8095982F8D
:1019D0000E944F3D21E030EC48E255E40E945D3E1C
:1019E000181634F48CE89AE09093420B8093410BE4
:1019F0006091410B7091420B882777FD8095982F5D
:101A00000E944F3D21E030E041E654EC0E94AD3CA5
:101A1000882314F00C9423058CE79CEF9093420BE1
:101A20008093410B0C94230510926A0181E0089584
:101A300021E020936A01909369018093680181E01D
:101A40000895FC0180916A01882349F08091680122
:101A5000909169019183808310926A0181E00895D9
:101A6000FC0180916A01882339F08091680190918E
:101A700069019183808381E0089590919A00986034
:101A800090939A00882321F080919A00806903C086
:101A900080919A008F7680939A00662321F080913E
:101AA0009A00886203C080919A008F7D80939A008B
:101AB0000895BF92CF92DF92EF92FF920F931F9300
:101AC0006A017B01B22E403086E9580780E0680742
:101AD00080E0780709F49FC0413096E9590790E00B
:101AE000690790E0790708F040C0403885E2580760
:101AF00080E0680780E0780709F481C0413895E20A
:101B0000590790E0690790E0790798F4403689E03A
:101B1000580780E0680780E0780709F46DC0403C12
:101B200092E1590790E0690790E0790709F085C0D4
:101B300060C040308BE4580780E0680780E0780799
:101B400009F463C0403890E7590790E0690790E0D6
:101B5000790709F45DC0403488E3580780E06807DE
:101B600080E0780709F069C04DC0403094E859071B
:101B700093E0690790E0790709F46AC0413084E88E
:101B8000580783E0680780E07807D0F440309CE293
:101B9000590791E0690790E0790709F442C04030A5
:101BA00082EC580781E0680780E07807E9F140306F
:101BB00091EE590790E0690790E07907F1F52EC0A2
:101BC000403281EA580787E0680780E0780779F1BA
:101BD000403492E459079FE0690790E0790751F19A
:101BE000403980ED580783E0680780E0780729F5E1
:101BF0002FC02FEC30E02EC020EA31E02BC027E6CA
:101C000030E028C024E430E025C023E330E022C0E7
:101C100022E230E01FC029E130E01CC020E130E0CA
:101C200019C02CE030E016C028E030E013C021E0FD
:101C300030E010C020E030E00DC060E472E48FE0DE
:101C400090E0A70196010E947C3F2150304002C0E5
:101C500023E030E030939800209399000130110583
:101C600039F00230110511F480E203C080E001C0B8
:101C700080E397E0B91629F098E0B91619F4866068
:101C800001C08460886080939D0080E060E00E94D5
:101C90003D0D81E01F910F91FF90EF90DF90CF906D
:101CA000BF90089580939C0081E00895FC0180918D
:101CB0009C00808381E008951F920F920FB60F92CF
:101CC00011240F900FBE0F901F9018951F920F9226
:101CD0000FB60F920BB60F9211242F933F934F9391
:101CE0005F936F937F938F939F93AF93BF93EF9384
:101CF000FF93E091B00BF091B10B099588EC8093C4
:101D00004A01FF91EF91BF91AF919F918F917F9188
:101D10006F915F914F913F912F910F900BBE0F905C
:101D20000FBE0F901F9018951F920F920FB60F9233
:101D30000BB60F9211242F933F934F935F936F93A2
:101D40007F938F939F93AF93BF93EF93FF93E09114
:101D5000AC0BF091AD0B0995FF91EF91BF91AF9155
:101D60009F918F917F916F915F914F913F912F91B3
:101D70000F900BBE0F900FBE0F901F9018951DBCBB
:101D80001CBC20916B0130916C012115310529F0AB
:101D900087B7806187BF3BBD2ABD8EB585608EBD8C
:101DA00008958EB58A7F8EBD87B78F7E87BF86B731
:101DB000806186BF0895A0E0B0E0BC01CD0129E0BC
:101DC0003DE340E050E00E943C3F20E23EE440E042
:101DD00050E00E947C3F30936C0120936B011FBC4C
:101DE0001EBC10927A000E94D10E81E008951F92CD
:101DF0000F920FB60F920BB60F9211242F933F93B1
:101E00004F935F936F937F938F939F93AF93BF9302
:101E1000EF93FF93E091AE0BF091AF0B0995FF911B
:101E2000EF91BF91AF919F918F917F916F915F9152
:101E30004F913F912F910F900BBE0F900FBE0F90BF
:101E40001F901895482F18161CF022E030E042C071
:101E5000F89461157105F9F0E2E1F1E080E090E0BD
:101E6000208131812115310519F02617370769F4D2
:101E7000FC01EE0FFF1FE80FF91FEF5EFE4F4083DE
:101E800072836183409719F51FC0019633968031A4
:101E9000910531F719C0E1E1F1E020E030E0808107
:101EA000841759F4F901EE0FFF1FE20FF31FEF5EE5
:101EB000FE4F1082128211820AC02F5F3F4F33966D
:101EC0002031310561F703C024E030E002C020E09A
:101ED00030E07894C901089580910F01909110012C
:101EE000019719F026E030E009C0E0918001F091FF
:101EF0008101309709F0099520E030E0C90108958B
:101F000080910F0190911001019719F026E030E0C7
:101F10000BC0E0917A01F0917B01099510921001BC
:101F200010920F0120E030E0C901089580910F0167
:101F300090911001009761F4E0917C01F0917D0196
:101F4000099581E090E09093100180930F0105C006
:101F5000019719F026E030E002C020E030E0C9012E
:101F60000895DF93CF9300D0CDB7DEB780910F01F6
:101F700090911001892B19F026E030E089C0CE0144
:101F800001960E94210D813009F080C089819A81DB
:101F90008130910521F0029709F078C01CC0E091D2
:101FA0007E01F0917F0182E791E063E771E04FE607
:101FB00051E00995892B09F069C0909172018091D7
:101FC0007501981719F0992309F060C082E090E03C
:101FD0000E94180D5BC0A0917301B09174013C91F7
:101FE0003093710181E090E090936E0180936D01D8
:101FF000E1E1F1E080E090E020812223D1F023179D
:1020000099F4FC01EE0FFF1FE80FF91FEF5EFE4F82
:102010000180F281E02DCD016FE671E0099590938A
:102020006E0180936D0105C0019633968031910554
:1020300019F780917201882349F120916D01309147
:102040006E012115310599F0E0917301F091740151
:102050008091710180688083E0917301F091740137
:10206000218382E090E09093700180936F016091F2
:1020700073017091740140916F0150917001E09172
:102080007801F091790180917501099520E030E0A7
:10209000C9010F900F90CF91DF910895CF93DF93F7
:1020A0000E948637EC01009761F50E94140D882389
:1020B00019F4C3E0D0E02BC087E297E390937B0153
:1020C00080937A0183E897E390937D0180937C016C
:1020D00081E497E390937F0180937E0188E297E308
:1020E0009093790180937801109281011092800180
:1020F0008FEF8093750182E090E090937701809359
:10210000760181E090E09093100180930F01CE0161
:10211000DF91CF910895EF92FF920F931F93FC01EF
:10212000862F8150873F08F04FC060937501EF2BD9
:1021300009F04AC086E695E190937B0180937A018D
:102140008BEC94E190937D0180937C0183E795E192
:10215000909379018093780187EC95E190937F01CA
:1021600080937E01109281011092800184E195E1BB
:102170009093B10B8093B00B84ED94E19093AD0BF1
:102180008093AC0B8DEA94E19093AF0B8093AE0BF0
:10219000862F642FA901980187010E94FF158C01E9
:1021A0000097A1F40E94140D882319F403E010E0B5
:1021B0000DC0109277011092760181E090E090932B
:1021C000100180930F0102C002E010E0C8011F91CE
:1021D0000F91FF90EF900895CF93DF93FC01EB01F7
:1021E000888199810697D8F1A181B281938180E09D
:1021F0002481422F50E0482B592B3581CA0187702A
:102200009070BA0123E0769567952A95E1F7892BBE
:1022100019F0262F2F5F01C0262FCA010197805B7E
:102220009740E8F42317D9F47A2F60E08B2F90E0E1
:10223000682B792B6F5F7F4FCF01069621E030E04E
:102240000E945204009721F00E9478149C0109C05A
:1022500085E090E09983888320E030E002C023E0AD
:1022600030E0C901DF91CF910895DF93CF9300D083
:10227000CDB7DEB7DC01FB0180819181059789F53F
:1022800011962C91119712963C91129714968C915D
:102290001497882331F513969C91892F81508E3F96
:1022A00000F11A829F3F19F481E0898301C01982ED
:1022B000722F60E0832F90E0682B792B6F5F7F4F48
:1022C000CE01019641E050E021E030E00E9452044E
:1022D000009719F420E030E006C00E9478149C01B9
:1022E00002C023E030E0C9010F900F90CF91DF9141
:1022F00008950F931F93CF93DF93FC01EB01888127
:102300009981059709F04AC00181DF011296328157
:10231000938180E02481422F50E0482B592BCA0141
:1023200001978F5C9740D0F51982188281E08083F5
:1023300088819981019699838883CA0187709070FA
:10234000BA0113E0769567951A95E1F7892B19F094
:10235000162F1F5F01C0162F118388819981019666
:1023600099838883702F60E0832F90E0682B792B0E
:102370006F5F7F4FCD0120E030E00E945204009754
:1023800021F00E9478149C010BC088819981810FF3
:10239000911D9983888320E030E002C023E030E083
:1023A000C901DF91CF911F910F9108950F931F9352
:1023B000CF93DF93FC01EB0188819981059709F0A8
:1023C00048C00181DF0112963281938180E024812F
:1023D000422F50E0482B592BCA0101978F5C974040
:1023E000C0F51982188282E08083888199810196E4
:1023F00099838883CA0187709070BA0123E076952B
:1024000067952A95E1F7892B19F0162F1F5F01C0F8
:10241000162F118388819981019699838883702F63
:1024200060E0832F90E0682B792B6F5F7F4FCD01A9
:102430000E940504009721F00E9478149C010BC0B3
:1024400088819981810F911D9983888320E030E0F4
:1024500002C023E030E0C901DF91CF911F910F91BD
:1024600008958F929F92AF92BF92CF92DF92EF9298
:10247000FF920F931F93CF93DF93EC018B01FB012E
:10248000808191810A9708F46AC0898022E0A22E97
:10249000B12CAC0EBD1E9A809B8180E02C81E22E77
:1024A000FF24E82AF92AED81FE816F81288579854C
:1024B000C70101978D37910508F058C0962F80E02D
:1024C000422F50E0482B592B4115510509F44EC0BD
:1024D0004A37510508F04AC09A01220F331F872F4F
:1024E00090E02817390709F041C07E2F60E08F2F58
:1024F00090E0682B792B6F5F7F4FCE010A9621E029
:1025000030E00E94B501009769F5F8011182108250
:1025100087E188838081918101969183808367011F
:10252000CC0CDD1CC98280819181019691838083CE
:10253000782D60E0892D90E0682B792B6F5F7F4FBD
:10254000C501A70120E030E00E94B501009751F4D9
:10255000F801808191818C0D9D1D9183808320E005
:1025600030E006C00E9478149C0102C023E030E0F5
:10257000C901DF91CF911F910F91FF90EF90DF90F4
:10258000CF90BF90AF909F908F9008950F931F931F
:10259000CF93DF93FC01EB01888199810597D9F5F1
:1025A000B1819F012E5F3F4FA2818481482F50E06F
:1025B000CA0101978D37910570F51982188283E061
:1025C0008083888199810196998388838A01000F8D
:1025D000111F0183888199810196998388837B2FBC
:1025E00060E08A2F90E0682B792B6F5F7F4FC901E5
:1025F00020E030E00E94B501009721F00E9478149D
:102600009C010BC088819981800F911F99838883D9
:1026100020E030E002C023E030E0C901DF91CF913B
:102620001F910F910895CF93DF93FC01EB018881F7
:102630009981069778F13181A281938180E024818C
:10264000422F50E0482B592B2581CA01019788372A
:10265000910500F5CA01880F991F2817D9F4732F27
:1026600060E08A2F90E0682B792B6F5F7F4FCF015E
:10267000069621E030E00E94B501009721F00E940B
:1026800078149C0109C085E090E09983888320E05C
:1026900030E002C023E030E0C901DF91CF9108951E
:1026A000DC01FB0180819181059719F023E030E086
:1026B0001CC011967C91119760E012968C91129734
:1026C00090E0682B792B6F5F7F4FCD01039641E03F
:1026D00050E021E030E00E94B501009719F420E0BD
:1026E00030E003C00E9478149C01C9010895FF9254
:1026F0000F931F93CF93DF93FC01EB0188819981A6
:102700000597E1F5F180DF0112963281938180E037
:102710002481422F50E0482B592BCA0101978C3756
:10272000910560F51982188284E0808388819981FF
:102730000196998388838A01000F111F0183888184
:1027400099810196998388837F2D60E0832F90E0A3
:10275000682B792B6F5F7F4FCD010E948D01009711
:1027600021F00E9478149C010BC088819981800F10
:10277000911F9983888320E030E002C023E030E09D
:10278000C901DF91CF911F910F91FF9008950F9391
:102790001F938B019C012F5F3F4FE2E8F1E04091D6
:1027A000A2015091A301C901BF010E94C63F8091BF
:1027B000A2019091A3010196F8019183808380E0AA
:1027C00090E01F910F910895CF93DF93E82FE901D7
:1027D000C9010296809718F024E030E024C0E0930D
:1027E0008201662311F480E001C08FEF80938301A2
:1027F00082E090E09093A3018093A201209789F05A
:1028000024E831E0C901BA01AE010E94C63F8091BF
:10281000A2019091A3018C0F9D1F9093A30180931F
:10282000A20120E030E0C901DF91CF9108950F931C
:102830001F93CF93DF9330E0DB0153E0B695A7956C
:102840005A95E1F767707070E1E0F0E002C0EE0FBA
:10285000FF1F4A95E2F731978C010A0F1B1FE80111
:10286000488150E01196A80FB91F9C9180E0482B39
:10287000592B062E02C0EE0FFF1F0A94E2F7E095D7
:10288000F0954E235F2302C0220F331F6A95E2F7B3
:10289000422B532B48835C93DF91CF911F910F9173
:1028A0000895FB01B3E0F695E795BA95E1F7DC01F1
:1028B000AE0FBF1F2C9130E011969C9180E0822BCF
:1028C000932BA3E0EE0FFF1FAA95E1F76E1B7F0B82
:1028D00002C0969587956A95E2F721E030E002C044
:1028E000220F331F4A95E2F721503040822308958A
:1028F0008130910531F08130910530F0079751F426
:1029000006C022E030E008C020E030E005C026E04C
:1029100030E002C024E030E0C9010895DC013FEF5F
:102920002FEF11C08D91422F482750E0CA018952E4
:102930009F4FFC01249149525E4FFA018491232755
:1029400061507040382F6115710561F7932F80E059
:1029500030E0282B392BC90108951F938091A601DF
:102960009091A701009721F0029729F010E008C08C
:1029700080E090E002C081E090E00E94180D182FE6
:102980000E94D10E81E090E09093A7018093A60170
:10299000812F1F910895F89480E060E00E943D0D22
:1029A0000E94D10E789408951F938091A401909174
:1029B000A501009719F0019729F406C081E060E0B5
:1029C0000E943D0D10E02DC08091AA019091AB01B5
:1029D000892BD1F0E091A801F091A90180810E949A
:1029E000520E8091A8019091A90101969093A9019E
:1029F0008093A8018091AA019091AB0101979093D7
:102A0000AB018093AA01DECF83E090E00E94180D15
:102A1000182F81E060E00E943D0D1092A5011092F8
:102A2000A401812F1F910895DF93CF930F92CDB70B
:102A3000DEB7CE0101960E94560E8091A6019091BC
:102A4000A7018130910549F081309105C0F18230B4
:102A50009105C1F00397A9F532C01092AD01109213
:102A6000AC018091AC019091AD012981FC01EA5447
:102A7000F44F208301969093AD018093AC0182E0E6
:102A800090E019C08091AC019091AD018F3F91050C
:102A900009F078F48091AC019091AD012981FC019D
:102AA000EA54F44F208301969093AD018093AC01DA
:102AB00006C083E090E09093A7018093A6010E9456
:102AC000BF0E80E00F90CF91DF910895F89410929F
:102AD000A7011092A60181E060E00E943D0D0E94D6
:102AE000BF0E78940895CF93DF93F894C091A60118
:102AF000D091A701C130D10519F025E030E042C0E6
:102B0000FB013197F093A901E093A801D093AB01A9
:102B1000C093AA0180838091AA019091AB01840F98
:102B2000951F9093AB018093AA016091AA017091C7
:102B3000AB01CF010E948E142091AA013091AB010C
:102B4000F901EA54F44F80832F5F3F4F3093AB017C
:102B50002093AA012091AA013091AB01F901EA5416
:102B6000F44F90832F5F3F4F3093AB012093AA0126
:102B7000D093A501C093A40180E061E00E943D0DC7
:102B800020E030E07894C901DF91CF910895EF9271
:102B9000FF920F931F93CF93DF93EC017B018A0188
:102BA000F8948091AC019091AD010497E8F06091A8
:102BB000AC017091AD0186EB9BE00E948E14892BD5
:102BC00099F48091B60B88838091AC019091AD010E
:102BD0000397F8019183808387EB9BE0F701918352
:102BE000808320E030E002C025E030E07894C90125
:102BF000DF91CF911F910F91FF90EF900895CF92A9
:102C0000DF92EF92FF920F931F93862F69017A0153
:102C1000F894BA01A90128E00E94590D813011F5FC
:102C200081E0C8168BE4D80680E0E80680E0F8066C
:102C300028F08AE090E0A0E0B0E00DC0CC0CDD1CF4
:102C4000EE1CFF1C60EA7FE787E190E0A701960198
:102C50000E947C3FC9010E94DB0E813019F420E004
:102C600030E002C023E030E07894C9011F910F9159
:102C7000FF90EF90DF90CF900895EF92FF920F9327
:102C80001F937B018C012FE632E143E85AE30E9457
:102C9000AD3C18166CF0C801B7012FE632E143E8ED
:102CA0005AEB0E945D3E88231CF020E030E00FC00C
:102CB000C801B7012FE632E143E85AE30E945D3EC6
:102CC00018161CF02FEF3FEF02C021E030E0C901E1
:102CD0001F910F91FF90EF90089520EE3EE245E6A0
:102CE00052E40E94B43C089520EE3EE245E652E4F0
:102CF0000E94683E08952F923F924F925F926F928A
:102D00007F928F929F92AF92BF92CF92DF92EF927B
:102D1000FF920F931F93DF93CF93CDB7DEB7A297A8
:102D20000FB6F894DEBF0FBECDBF6C017AA369A3C6
:102D300029873A874B875C87FC01608171818827EE
:102D400077FD8095982F0E944F3D26E636ED48E9A5
:102D500054E40E94B43C6D877E878F87988BF60180
:102D600062817381882777FD8095982F0E944F3D5F
:102D70002DE43DE34FE854E40E94B43C698B7A8B28
:102D80008B8B9C8BF60164817581882777FD8095FC
:102D9000982F0E944F3D29ED3CE147E254E40E9408
:102DA000B43C1B012C01F60166817781882777FDF1
:102DB0008095982F0E944F3D23E333EB44E753E483
:102DC0000E94B43C4B015C01F60160857185882747
:102DD00077FD8095982F0E944F3D23E333EB44E726
:102DE00053E40E94B43C7B018C01F601628573853B
:102DF000882777FD8095982F0E944F3D20E030E096
:102E000047E054E40E94B43C6D8B7E8B8F8B988F8F
:102E1000C501B401A80197010E94E73B20E030E022
:102E200040E05FE30E94683E698F7A8F8B8F9C8FB2
:102E3000C501B401A80197010E94E63B20E030E003
:102E400040E05FE30E94683E7B018C0169857A85E2
:102E50008B859C852D853E854F8558890E94683ECF
:102E60009B01AC01C801B7010E94E63B6D8F7E8FCC
:102E70008F8F98A369897A898B899C890E94B13C3C
:102E80007B018C01C201B1010E94B13C5B016C016C
:102E9000698D7A8D8B8D9C8D0E94B13C3B014C01DC
:102EA000C801B70120E030E042E353E40E94683EED
:102EB0007B018C01C601B50120E030E042E353E420
:102EC0000E94683E9B01AC01C801B7010E94E73B2C
:102ED0007B018C01C401B30120E030E048EB52E4F7
:102EE0000E94683E9B01AC01C801B7010E94E73B0C
:102EF0007B018C016D857E858F8598890E94B13C10
:102F00005B016C016D857E858F8598890E94CB3E23
:102F10003B014C0169897A898B899C8990580E9470
:102F2000CB3E6D837E838F83988757FA509457F8F2
:102F30005094C201B1010E94CB3E1B012C01698D4E
:102F40007A8D8B8D9C8D90580E94CB3E69837A83BD
:102F50008B839C83C801B701A60195010E94683E3E
:102F6000E9A1FAA16083718382839383C801B701C9
:102F7000A40193010E94683EE9A1FAA164837583CC
:102F8000868397836D817E818F81988520E030E0F4
:102F900042E353EC0E94683E20E030E043E453E417
:102FA0000E94E73B7B018C01C201B10120E030E0CF
:102FB00042E353EC0E94683E9B01AC01C801B7019B
:102FC0000E94E73B7B018C0169817A818B819C8126
:102FD00020E030E048EB52EC0E94683E9B01AC01DF
:102FE000C801B7010E94E73BE9A1FAA16087718798
:102FF00082879387698D7A8D8B8D9C8D20EE3EE242
:1030000045E652E40E94683EE9A1FAA1648775870B
:10301000868797876D8D7E8D8F8D98A120EE3EE2FD
:1030200045E652E40E94683E9058E9A1FAA1608BFF
:10303000718B828B938B6D897E898F89988D20EE21
:103040003EE245E652E40E94683E9058E9A1FAA1AA
:10305000648B758B868B978BA2960FB6F894DEBF28
:103060000FBECDBFCF91DF911F910F91FF90EF90D9
:10307000DF90CF90BF90AF909F908F907F906F9098
:103080005F904F903F902F9008952F923F924F92D4
:103090005F926F927F928F929F92AF92BF92CF92E8
:1030A000DF92EF92FF920F931F93DF93CF93CDB7F1
:1030B000DEB760970FB6F894DEBF0FBECDBF69874D
:1030C0007A878B879C872D873E874F87588B370160
:1030D0004801C801B70120E030E040E050E00E9424
:1030E000AD3C88235CF40F2EF0E06F2EF0E07F2ED5
:1030F000F0E08F2EF0E09F2EF02D0AC0C801B7013E
:1031000020E030E046E953E40E94AD3C8823A4F47B
:1031100069857A858B859C8520E030E040E050E031
:103120000E94AD3C882344F480E090E0A8ECB2E437
:1031300089879A87AB87BC8769857A858B859C85CB
:103140009B01AC010E94683E7B018C016D857E85F0
:103150008F8598899B01AC010E94683E9B01AC0160
:10316000C801B7010E94E73B0E94D53E1B012C011C
:10317000C401B30122E430E043E453E40E94AD3CD7
:10318000181674F0C401B3012EEB3FEF42E453E490
:103190000E945D3E882324F0EE24FF2400EE19C037
:1031A000C401B3012FE632E143E85AE30E94AD3C8B
:1031B00018168CF0C401B3012FE632E143E85AEB54
:1031C0000E945D3E88233CF09CEDE92E8AEAF82EB1
:1031D00009EC13E418C060E070E083E493E4A40118
:1031E00093010E94E63B9B01AC010E94683E9B015B
:1031F000AC0160E070E084E498E40E94E63B0E9449
:10320000D53E7B018C01C201B1019701A8010E944A
:103210005D3E181624F4C701D8011C012D01C6011A
:10322000B501905820EE3EE245E652E40E94B43CDF
:103230006D837E838F8398876DA17EA18FA198A5D2
:1032400020EE3EE245E652E40E94B43C69837A8374
:103250008B839C836D817E818F8198850E94B13C98
:1032600020E030E048EB52EC0E94683E9B01AC014C
:10327000C201B1010E94E73B1B012C016D817E81DF
:103280008F8198850E94CB3E7B018C0160E070E0CD
:1032900083E493E4A40193010E94E63B5B016C018B
:1032A000C801B70120E030E048EB52EC0E94683ED4
:1032B0009B01AC01C601B5010E94E73B5B016C01BB
:1032C000C201B1012FE632E143E85AE30E94AD3C6E
:1032D00018160CF43EC0C201B1012FE632E143E8FA
:1032E0005AEB0E945D3E8823A4F1C601B5012FE68A
:1032F00032E143E85AE30E94AD3C18166CF0C60177
:10330000B5012FE632E143E85AEB0E945D3E882387
:103310001CF020E030E00FC0C601B5012FE632E11D
:1033200043E85AE30E945D3E18161CF02FEF3FEF72
:1033300002C021E030E0B901882777FD8095982F01
:103340000E944F3D2BED3FE049EC5FE30E94683E59
:1033500006C0C601B501A20191010E945A3C3B0181
:103360004C01C201B101A20191010E94683E7B01A2
:103370008C01C601B501A60195010E94683E9B0122
:10338000AC01C801B7010E94E73B0E94D53E20E096
:1033900030E040E05FE30E94683E7B018C01A801C1
:1033A00097010E94683E9B01AC0160E078E887EFDE
:1033B00096E40E94E63B0E94D53EA80197010E9438
:1033C000B43C0E94853C1B012C0169857A858B8564
:1033D0009C852FE632E143E85AE30E94AD3C181683
:1033E0000CF44DC069857A858B859C852FE632E18A
:1033F00043E85AEB0E945D3E88230CF440C06D8583
:103400007E858F8598892FE632E143E85AE30E9452
:10341000AD3C18167CF06D857E858F8598892FE6EA
:1034200032E143E85AEB0E945D3E88231CF020E025
:1034300030E011C06D857E858F8598892FE632E159
:1034400043E85AE30E945D3E18161CF02FEF3FEF51
:1034500002C021E030E0B901882777FD8095982FE0
:103460000E944F3D2BED3FE049E450E40E94683E4E
:1034700020E030E040E05FE30E94683E0AC06D85D6
:103480007E858F85988929853A854B855C850E9444
:103490005A3C5B016C016DA57EA58FA598A9A6017C
:1034A00095010E94683E7B018C01C601B50126E6AC
:1034B00036ED48E954EC0E94683E0E941C3DA9A9E3
:1034C000BAA96D937C93C401B301A20191010E943A
:1034D000E63B2DE43DE34FE854E40E94683E0E9441
:1034E0001C3DE9A9FAA973836283C401B301A20157
:1034F00091010E94E73B29ED3CE147E254E40E9440
:10350000683E0E941C3DA9A9BAA915967C936E93AA
:1035100014976D817E818F81988529813A814B81B5
:103520005C810E94E73BA80197010E94E73B23E3EF
:1035300033EB44E753E40E94683E0E941C3DE9A936
:10354000FAA9778366836D817E818F819885298131
:103550003A814B815C810E94E63BA80197010E9461
:10356000E63B23E333EB44E753E40E94683E0E94CA
:103570001C3DA9A9BAA919967C936E93189769A5C1
:103580007AA58BA59CA50E946D1620E030E047E04F
:1035900054E40E94683E0E941C3DE9A9FAA9738781
:1035A000628760960FB6F894DEBF0FBECDBFCF9195
:1035B000DF911F910F91FF90EF90DF90CF90BF9020
:1035C000AF909F908F907F906F905F904F903F90C3
:1035D0002F9008952F923F924F925F926F927F9219
:1035E0008F929F92AF92BF92CF92DF92EF92FF9213
:1035F0000F931F93DF93CF93CDB7DEB728970FB606
:10360000F894DEBF0FBECDBF3B014C0119012A016A
:10361000C601B5010E946D1669837A838B839C83F2
:10362000C201B101A40193010E945A3C6D837E83C3
:103630008F839887C401B301A40193010E94683E5F
:103640005B016C01C201B101A20191010E94683EBF
:103650009B01AC01C601B5010E94E73B0E94D53E2B
:103660005B016C0169817A818B819C810E94B13CF4
:1036700020E030E048EB52EC0E94683E9B01AC0138
:10368000C601B5010E94E73B3B014C0169817A818B
:103690008B819C810E94CB3E5B016C01C801B7010C
:1036A00020E030E043E453E40E94E63B7B018C01E0
:1036B000C601B50120E030E048EB52EC0E94683EC4
:1036C0009B01AC01C801B7010E94E73B5B016C01A3
:1036D000C401B3012FE632E143E85AE30E94AD3C56
:1036E00018160CF43EC0C401B3012FE632E143E8E2
:1036F0005AEB0E945D3E8823A4F1C601B5012FE676
:1037000032E143E85AE30E94AD3C18166CF0C60162
:10371000B5012FE632E143E85AEB0E945D3E882373
:103720001CF020E030E00FC0C601B5012FE632E109
:1037300043E85AE30E945D3E18161CF02FEF3FEF5E
:1037400002C021E030E0B901882777FD8095982FED
:103750000E944F3D2BED3FE049EC5FE30E94683E45
:1037600006C0C601B501A40193010E945A3C1B0189
:103770002C01C401B301A40193010E94683E7B01A6
:103780008C01C601B501A60195010E94683E9B010E
:10379000AC01C801B7010E94E73B0E94D53E20E082
:1037A00030E040E05FE30E94683E7B018C01A801AD
:1037B00097010E94683E9B01AC0160E078E887EFCA
:1037C00096E40E94E63B0E94D53EA80197010E9424
:1037D000B43C0E94853C7B018C016D817E818F8190
:1037E000988526E636ED48E954EC0E94683E0E9432
:1037F0001C3DE9A5FAA571836083C801B701A20148
:1038000091010E94E73B2DE43DE34FE854EC0E9418
:10381000683E0E941C3DE9A5FAA573836283C2013C
:10382000B101A80197010E94E63B29ED3CE147E286
:1038300054EC0E94683E0E941C3DE9A5FAA57583E0
:1038400064836D8D7E8D8F8D98A10E946D169B0176
:10385000AC0169817A818B819C810E94E73B7B016D
:103860008C016DA17EA18FA198A52D813E814F81F4
:1038700058850E94683E9B01AC01C801B7010E94B7
:10388000E73B23E333EB44E753EC0E94683E0E949E
:103890001C3DE9A5FAA5778366837187608769A1D6
:1038A0007AA18BA19CA10E946D1620E030E047E038
:1038B00054EC0E94683E0E941C3DE9A5FAA573875E
:1038C000628728960FB6F894DEBF0FBECDBFCF91AA
:1038D000DF911F910F91FF90EF90DF90CF90BF90FD
:1038E000AF909F908F907F906F905F904F903F90A0
:1038F0002F900895CF92DF92EF92FF920F931F9334
:10390000DF93CF9300D000D000D0CDB7DEB77C01DD
:10391000D62EC72E0EEA11E01CC0D8018C91882348
:10392000B1F0C8010796B70144E050E00E94B93FEA
:10393000009769F48D2D9C2D9C01D901F8013196D9
:1039400086E001900D928150E1F781E05CC0055F57
:103950001F4FB1E00A3D1B0701F720E031E0309333
:103960009F0E20939E0E88E090E09093A10E80938E
:10397000A00E86E08093A20E84E08093A30E309385
:10398000A50E2093A40E0E94201EA6EABEE0FC0114
:1039900086E001900D928150E1F70E94D91EFC0152
:1039A00080819181A281B3818093AC0E9093AD0E02
:1039B000A093AE0EB093AF0E80EB9EE0FC0186E0CC
:1039C000DF011D928A95E9F7F70180819181A2813B
:1039D000B3818093B60E9093B70EA093B80EB093B8
:1039E000B90E8E010F5F1F4FC8016FEF70E046E008
:1039F00050E00E94E13FC80166E078E04CE150E011
:103A00000E94231E80E026960FB6F894DEBF0FBEFC
:103A1000CDBFCF91DF911F910F91FF90EF90DF907D
:103A2000CF9008956F927F928F929F92AF92BF92A4
:103A3000CF92DF92EF92FF920F931F93CF93DF937A
:103A40008C016C31710508F4C3C00E94D91EBC0101
:103A5000C801489644E050E00E94B93F009709F041
:103A6000B7C0F801808191818050914009F0B0C0C9
:103A7000F80182819381089709F0AAC08481863079
:103A800009F0A6C08581843009F0A2C0A680B78065
:103A9000F0E0AF16F1E0BF0631F020E0A21622E020
:103AA000B20609F095C028E0622E712C600E711EDE
:103AB0009EE0892E912C800E911EEE24EA94FE2C1D
:103AC0008EEAC82E81E0D82EE60113C0CE010796FB
:103AD000B40144E050E00E94B93F009779F088813A
:103AE00090E08E159F0510F0C70101C06E012B9666
:103AF0007C0181E0CA3DD80749F7E601DE01119655
:103B0000F30186E001900D928150E1F7F80186857E
:103B10009785A089B1898F839887A987BA878CE315
:103B20008883F0E0AF16F1E0BF0611F081E051C0EC
:103B3000F8018081918190939F0E80939E0E8281E7
:103B400093819093A10E8093A00E84818093A20E06
:103B500085818093A30E80E092E09093A50E8093E0
:103B6000A40E0E94201EA6EABEE0FC0186E00190A1
:103B70000D928150E1F70E94D91EFC018081918154
:103B8000A281B3818093AC0E9093AD0EA093AE0E44
:103B9000B093AF0EA0EBBEE0F30186E001900D9272
:103BA0008150E1F7F80186859785A089B1898093D6
:103BB000B60E9093B70EA093B80EB093B90E80EBEB
:103BC0009EE066E078E04CE150E00E94231E01C0D8
:103BD00080E0DF91CF911F910F91FF90EF90DF90E8
:103BE000CF90BF90AF909F908F907F906F900895EF
:103BF0008CE2EEEAF1E0DF011D928A95E9F78CE0B4
:103C00009EE160E070E00E949B3248E853E160E092
:103C100070E00E94F9310895EEEAF1E006C02081DB
:103C2000222311F0215020833B9621E0EA3DF20748
:103C3000B1F748E853E160E070E00E94F93108957F
:103C40008AED91E008950F931F93CF93DF93FC01CA
:103C5000EA0181E04D3C580710F080E022C080E985
:103C60009EE0182F092FDC0186E001900D92815013
:103C7000E1F7A6E9BEE0EAEDF1E086E001900D9201
:103C80008150E1F7CB010E94D12090939D0E80934B
:103C90009C0E2E96812F902FBE010E94F53581112A
:103CA00081E0DF91CF911F910F91089586EB9CE009
:103CB0006AED71E00E948835009711F480E0089564
:103CC000BC016E5070408091C20C9091C30C883042
:103CD000910549F08850964021F484EC9CE00E94C4
:103CE000121D81E0089584EC9CE00E942A2081E06E
:103CF00008959C01EAEDF1E086E0DF011D928A95CE
:103D0000E9F72115310539F0DF01F90186E001906D
:103D10000D928150E1F708950895CF92DF92EF92CE
:103D2000FF920F931F93CF93DF936C01EB01F42E5F
:103D3000E52E8A819B810E94D1208C0180E090E059
:103D4000BE014F2D5E2D22E00E94B12080959095FE
:103D50000817190721F58881883009F502EB1EE064
:103D6000C801BE014F2D5E2D0E94C63F1092B20EBB
:103D700080E090E0B8014F2D5E2D22E00E94B1203E
:103D8000809590950E94D1209093B50E8093B40EAB
:103D9000C60161E04F2D5E2D0E946C1F01C080E0C6
:103DA000DF91CF911F910F91FF90EF90DF90CF9017
:103DB000089580EE91E0089584EE91E0089588EEF4
:103DC00091E0089540E020E030E0F901EC51FE4F31
:103DD00080818095F901E052FE4F9081892BF90195
:103DE000E451FE4F8083482B2F5F3F4F2430310535
:103DF00061F7442361F48FEF9FEFAFEFBFEF809344
:103E0000EC019093ED01A093EE01B093EF018CEEE5
:103E100091E00895FC011092E8011092E9011092DE
:103E2000EA011092EB01009761F080819181A281FB
:103E3000B3818093E8019093E901A093EA01B093E4
:103E4000EB010895FC018FEF9FEFAFEFBFEF809381
:103E5000E4019093E501A093E601B093E701309768
:103E600069F080819181A281B3818093E401909374
:103E7000E501A093E601B093E70108951092E701F0
:103E80000895FC011092E0011092E1011092E2010C
:103E90001092E301009761F080819181A281B3814A
:103EA0008093E0019093E101A093E201B093E301DC
:103EB0000895EF92FF920F931F938B017A010E9456
:103EC000411FC8010E94221FC7010E940A1F1F91A3
:103ED0000F91FF90EF900895BF92CF92DF92EF92F3
:103EE000FF920F931F93DF93CF9300D000D000D0A9
:103EF000CDB7DEB76C01B62E7A01FC0180819181CD
:103F0000A281B3818F5F9F4FAF4FBF4F51F00E948F
:103F1000E21EBC01C60144E050E00E94B93F009798
:103F200049F4CE0101966FEF70E046E050E00E9448
:103F3000E13F30C020E030E0F901E052FE4FD60111
:103F4000A20FB31F80819C918927F901EC51FE4F8C
:103F50009081892339F42F5F3F4F2430310561F779
:103F6000C6010FC08091E9019091E801892B9091E1
:103F7000EA01892B9091EB01892B09F45BC088EE53
:103F800091E0BE016F5F7F4F0E947A1C882311F47D
:103F900081E050C00EE91EE084E1F80111928A959B
:103FA000E9F780919E0E856480939E0E84E190E0F7
:103FB000E80EF91EC7010E94D1209093A10E8093B4
:103FC000A00E80E48093A60EB092A70E8091E0012F
:103FD0009091E101A091E201B091E3018093AA0EDA
:103FE0009093AB0EA093AC0EB093AD0EF601808112
:103FF0009181A281B3818093AE0E9093AF0EA09376
:10400000B00EB093B10E80E090E0B80144E150E012
:104010002AE00E94B120809590950E94D120909333
:10402000A90E8093A80ECE01019660E078E0A7016A
:104030000E94231E26960FB6F894DEBF0FBECDBF9A
:10404000CF91DF911F910F91FF90EF90DF90CF9074
:10405000BF9008958F929F92AF92BF92CF92DF92BE
:10406000EF92FF920F93CF93DF93EC014B01088106
:10407000802F82958F70843009F066C08A819B8181
:104080000E94D1206C013E812F8135FD5DC0C901A8
:104090009F71892B09F058C08A859B850E94D12089
:1040A0005C01000F000F0C73E02EFF2480E090E015
:1040B000BE01A7012AE00E94B12080959095A81624
:1040C000B90609F041C08C149D04F0F1CE01409670
:1040D00060EE71E044E050E00E94B93F009761F06B
:1040E00088898F3F89F589898F3F71F58A898F3F4C
:1040F00059F58B898F3F41F58985863079F081317B
:10410000C1F0813009F5BE016E0D7F1DCE18DF08AC
:10411000CE010C96A6010E948D1E17C0BE016E0D29
:104120007F1DCE18DF08CE010C96A6010E945C26EA
:104130000CC0BE016E0D7F1DCE18DF08CE010C969F
:10414000A6010E944B3001C080E0DF91CF910F911A
:10415000FF90EF90DF90CF90BF90AF909F908F90A7
:104160000895DC01FB0141155105C9F0CB01820F17
:10417000911D41505040460F571F8E179F0731F039
:104180000180A00D0080B01DA11DB11D3296E41765
:10419000F50798F321F40080B00DA11DB11DCD01EC
:1041A00008959C01022E232F302DC90108959B01F3
:1041B000AC01022E252F502D032E342F402DB90196
:1041C000CA0108959C018530910518F5FC0185E030
:1041D000EE0FFF1F8A95E1F7E20FF31FE051FE4F4C
:1041E000808191818230910519F0079791F405C083
:1041F00081E090E09183808307C088E090E0918324
:104200008083828D882311F081E0089581E0828F80
:10421000089580E008959C0185309105A0F4FC018B
:1042200095E0EE0FFF1F9A95E1F7E20FF31FE051C3
:10423000FE4F80819181039731F484E090E0918377
:10424000808381E0089580E00895009749F0805FC1
:10425000914061E270E00E94683F6530710510F0A6
:104260006FEF7FEFCB01089585309105A0F4FC013D
:1042700045E0EE0FFF1F4A95E1F7E80FF91FE05107
:10428000FE4F80819181079731F4878D90A10E9424
:10429000C92C9C0102C02FEF3FEFC9010895853062
:1042A0009105A0F4FC0155E0EE0FFF1F5A95E1F7D0
:1042B000E80FF91FE051FE4F80819181079731F49B
:1042C000878D90A10E94BB2C9C0102C02FEF3FEF75
:1042D000C901089585309105A0F4FC0165E0EE0F59
:1042E000FF1F6A95E1F7E80FF91FE051FE4F80814B
:1042F0009181892B31F0878D90A10E941C2C9C010B
:1043000002C02FEF3FEFC901089585309105A0F459
:10431000FC0175E0EE0FFF1F7A95E1F7E80FF91F3A
:10432000E051FE4F80819181892B31F0878D90A1E2
:104330000E94122C9C0102C02FEF3FEFC90108958B
:1043400085309105A0F4FC01A5E0EE0FFF1FAA95B2
:10435000E1F7E80FF91FE051FE4F80819181079747
:1043600031F4878D90A10E944E2C9C0102C020E068
:1043700030E0C901089585309105A0F4FC01B5E055
:10438000EE0FFF1FBA95E1F7E80FF91FE051FE4F5E
:1043900080819181892B31F0878D90A10E940C2E14
:1043A0009C0102C020E030E0C90108950F931F93E3
:1043B000CF93DF938530910500F5EC0115E0CC0F2C
:1043C000DD1F1A95E1F7C80FD91FC051DE4F888154
:1043D0009981079791F477FF02C06FEF7FE78F8D88
:1043E00098A10E942E2C8C018F8D98A10E94BB2C2D
:1043F000892B29F081E08A8F02C00FEF1FEFC801DF
:10440000DF91CF911F910F9108959C018530910507
:10441000C0F4FC0185E0EE0FFF1F8A95E1F7E20F83
:10442000F31FE051FE4F80819181892B51F077FF7E
:1044300002C06FEF7FE7878D90A10E94092E9C013B
:1044400002C02FEF3FEFC9010895FC0185309105AF
:10445000D8F4DC0195E0AA0FBB1F9A95E1F7AE0FE7
:10446000BF1FA051BE4F8D919C911197892B61F078
:1044700037FF02C02FEF3FE75F968D919C91909799
:104480000E949C2D9C0102C02FEF3FEFC9010895AF
:10449000CF93DF93EC019A0140E050E00E94252287
:1044A0009C0197FD05C0CE01B9010E9405229C0127
:1044B000C901DF91CF9108950F931F93CF93DF939D
:1044C0008530910500F5EC01E5E0CC0FDD1FEA95A4
:1044D000E1F7C80FD91FC051DE4F88819981079736
:1044E00091F457FF02C04FEF5FE78F8D98A10E94B4
:1044F000452D8C018F8D98A10E94BB2C892B29F012
:1045000081E08A8F02C00FEF1FEFC801DF91CF91CA
:104510001F910F9108958F929F92AF92BF92CF9269
:10452000DF92EF92FF920F931F93DF93CF93CDB75C
:10453000DEB7A0970FB6F894DEBF0FBECDBF4C011B
:104540006B01EE24FF245E010894A11CB11CC5017F
:10455000B60140E250E00E94AA3F88A1882319F0EA
:1045600000E210E009C0F50101900020E9F78F0199
:10457000015010400A191B09C401B501A8010E948D
:104580005C2297FD0BC0E80EF91E801791074CF0D6
:104590000032110531F4C80ED91ED9CFEE24EA94A9
:1045A000FE2CC701A0960FB6F894DEBF0FBECDBF9C
:1045B000CF91DF911F910F91FF90EF90DF90CF90FF
:1045C000BF90AF909F908F900895CF93DF938530E9
:1045D000910510F080E014C0EC01F5E0CC0FDD1F78
:1045E000FA95E1F7C80FD91FC051DE4F41F08F8D0A
:1045F00098A10E94082C1982188218A21F8E81E0AF
:10460000DF91CF910895CF93DF93EC010097C1F034
:104610008F8D98A10E94082C2A813B8181E2FE01A6
:1046200011928A95E9F781E090E0998388833B8332
:104630002A8388E192E09F8B8E8B81E08C8F1E8E87
:10464000DF91CF9108950F931F93CF93DF938B0149
:104650009C018530910500F561157105E9F0E0EFE9
:10466000F1E00AC080819181029728F080859185D0
:104670008017910789F0B19682E0E539F80791F744
:1046800011C0CE010E94032382E090E099838883C9
:104690001987088781E001C080E0DF91CF911F91E9
:1046A0000F910895E901A5E0CC0FDD1FAA95E1F770
:1046B000C20FD31FC051DE4F88819981019761F7E6
:1046C000E0CFE0EFF1E00FC080819181892B51F4C0
:1046D00081E2DF011D928A95E9F781E090E0918304
:1046E000808307C0B196B2E0E539FB0769F7E0E0E7
:1046F000F0E0CF010895CF93DF93EC01009781F0B4
:104700000E946123FC01009759F081E090E09183C1
:104710008083D383C283CF010E9425219C0102C0E4
:104720002FEF3FEFC901DF91CF910895EF92FF92F4
:104730000F931F93CF93DF938B017A0185309105FF
:1047400008F051C06115710509F44DC041155105BE
:1047500009F449C0EC01B5E0CC0FDD1FBA95E1F7D3
:10476000C80FD91FC051DE4F888199810197D9F5B3
:10477000CE010E9403230E94CE2B98A38F8F892BFA
:1047800091F1F80180819181A281B3818C839D8315
:10479000AE83BF8320914101309142012F5F3F4F93
:1047A000F4E020303F0710F420E034E0E0EFF1E0E7
:1047B0000AC080819181029728F0808591858217B7
:1047C000930761F3B19682E0E539F80791F72093FA
:1047D00041013093420139872887FB86EA868AE0C7
:1047E0008A8F81E001C080E0DF91CF911F910F910E
:1047F000FF90EF900895EF92FF920F931F93CF9346
:10480000DF937C01FB01009769F16115710551F19E
:10481000EB016496848582958F70082F10E0000F5D
:10482000111F000F111F060F171F19C08881882341
:10483000C9F0813099F0823061F48981843049F483
:104840002296888199810E94D120F701978B868BCF
:1048500005C08981823030F0C80FD11D2196C01764
:10486000D10720F3DF91CF911F910F91FF90EF902F
:104870000895CF92DF92EF92FF920F931F937C01E6
:104880006B018A010A5F1F4F0E94D91EBC01C8013B
:104890000650104044E050E024E00E94B120B701EF
:1048A00044E050E024E00E94B120B601A80120E1DC
:1048B0000E94B1209C0120953095C9011F910F9154
:1048C000FF90EF90DF90CF9008952F923F924F92FC
:1048D0005F926F927F928F929F92AF92BF92CF9290
:1048E000DF92EF92FF920F931F93DF93CF93CDB799
:1048F000DEB72B970FB6F894DEBF0FBECDBF9B87F8
:104900008A876F834887892B09F42FC1862F90E00F
:1049100062FD2BC132E0C32ED12CC822D92261FD09
:10492000188684E1E2EBFEE011928A95E9F7EA85C8
:10493000FB85808591850E94D1209093B30E809352
:10494000B20EEA85FB85828593850E94D1209093E3
:10495000B50E8093B40EEA85FB85628973898489DC
:1049600095890E94D7206093BA0E7093BB0E8093F6
:10497000BC0E9093BD0EEA85FB85878D90A10E94A9
:104980001C2C0E94D1209093C10E8093C00E1092D7
:10499000C50E1092C40EEA85FB85878D90A10E94FA
:1049A000BB2CBC01EA85FB85E484F584068517856C
:1049B000CD2861F482EB9EE044969C838B83E4E1F6
:1049C000F0E0FA83E98344EA51E017C082E094E022
:1049D000A1E0B4EA8093C60E9093C70EA093C80ED0
:1049E000B093C90E82EB9EE048969C838B83E8E1EE
:1049F000F0E0FA83E98340EA51E089819A81969553
:104A00008795969587958295807F8093BE0EEA85DF
:104A1000FB85268937891A012417350708F41901FF
:104A2000EA85FB85808D918D009741F08215930575
:104A300008F41C018617970738F005C026173707BA
:104A400010F4C90101C0CB01EA85FB85C088D1887B
:104A50002C014C185D084601AA24BB248E0C9F1C17
:104A6000A01EB11E3496FE83ED83FF81FE7FF98781
:104A70002885222319F4EE24FF2427C07201241470
:104A8000350408F47101EA85FB85878D90A16B815F
:104A90007C81A60197010E94972DE114F104A9F0F1
:104AA000EA85FB85848D238D253010F024E030E0ED
:104AB00090E002C0880F991F2A95E2F7EA85FB85EE
:104AC000828F882311F421E0228FC501B4010E9456
:104AD000D7206093B60E7093B70E8093B80E909364
:104AE000B90E37016C0C7D1CEA85FB85878D90A182
:104AF0000E94BB2C6816790620F4F985F093BF0E4E
:104B000003C02F812093BF0E09811A810E0D1F1D36
:104B10008D819E8162EB7EE0A8010E9439240E9473
:104B2000D1209093C30E8093C20E8D819E8166E04A
:104B3000A8010E946C1F882379F08885882371F072
:104B40004E185F0859F0C701A0E0B0E0880E991E2A
:104B5000AA1EBB1E63018CCF80E002C0630181E00E
:104B6000EA85FB85D18AC08A01C080E02B960FB60A
:104B7000F894DEBF0FBECDBFCF91DF911F910F9193
:104B8000FF90EF90DF90CF90BF90AF909F908F906D
:104B90007F906F905F904F903F902F900895CF92AD
:104BA000DF92EF92FF920F931F93CF93DF936C01ED
:104BB000EB018A016115710509F474C08D8582FDD0
:104BC00071C084E1E2EBFEE0DF011D928A95E9F716
:104BD0008A819B819093B30E8093B20E88819981D4
:104BE0009093B50E8093B40E80E58093BE0E8D85B4
:104BF00084FF10C084E08093BF0E88859985AA85C4
:104C0000BB858093B60E9093B70EA093B80EB09369
:104C1000B90E34C06C817D818E819F810E94D72026
:104C2000780100E010E02C8522952F7030E0220FF3
:104C3000331F220F331F442737FD4095542FE21AAC
:104C4000F30A040B150BE60EF71E081F191F8D85BE
:104C500081FF05C00894E11CF11C011D111D84E1B8
:104C60008093BF0EC801B7010E94D7206093BA0E8F
:104C70007093BB0E8093BC0E9093BD0EC60162EB89
:104C80007EE044E150E00E9439240E94D1209093BC
:104C9000C30E8093C20EC60166E044E150E00E945C
:104CA0006C1F01C080E0DF91CF911F910F91FF90A9
:104CB000EF90DF90CF9008956F927F928F929F92A6
:104CC000AF92BF92CF92DF92EF92FF920F931F931A
:104CD000CF93DF937C015B013A014431510508F425
:104CE00030C4C7010E9439248C01D50150968D91A2
:104CF0009C9151970E94D1200817190709F021C4EF
:104D0000C0EFD1E0CC24DD242BC088819981892B90
:104D100031F108851985F501828193810E94D120A6
:104D200008171907E1F488819981029711F46E013F
:104D300016C00A851B85D5018D919C910E94D120BA
:104D40000817190761F4BE016C5F7F4FC70144E08B
:104D500050E00E94B93F009711F46E0105C0A19682
:104D6000B2E0C539DB0789F6C114D10409F4E4C304
:104D7000A114B10409F4E5C3E114F10409F4E1C399
:104D8000C6010E9425214C0197FDDBC3F6018081FD
:104D900091818230910591F08530910509F49AC096
:104DA000019709F027C1D5011D968C9182FDC9C3D9
:104DB000C701B501A3010E94CF25BCC3F5018585BC
:104DC00082FDBFC384FDB8C381FFB6C30E946123C7
:104DD000EC010E94CE2B8C01209751F0009761F4DA
:104DE0008F8D98A10E94082C1982188218A21F8EFC
:104DF000C8010E94082CA5C3CE010E940323F7011D
:104E000080819181A281B3818C839D83AE83BF8396
:104E100083E090E099838883D60112968D919C91CE
:104E200013979B838A8318968D919C9119979987E4
:104E30008887F501808191810E94D1209B878A8794
:104E4000D50114966D917D918D919C9117970E943B
:104E5000D7206F5F7F4F8F4F9F4F6A8B7B8B8C8BE1
:104E60009D8B18A30F8FCE010E942521EA81FB8123
:104E700065E070E0099588819981049771F0C70118
:104E8000B501A3010E94CF258F8D98A10E94082C07
:104E90001982188218A21F8E4DC3CE01B5010E943F
:104EA000FB23CE0162E140E00E946524882351F497
:104EB00081E090E099838883CE010E942521EA81D8
:104EC000FB8107C386E090E09983888385E08A8F21
:104ED0001B8E30C3F501858584FF32C060857185E6
:104EE000828593850E94D7209B01AC01F6018485C1
:104EF0009585A685B7850196A11DB11DF50165852E
:104F0000281739074A075B0719F062FD1AC314C353
:104F100062FF11C081E090E0D60111969C938E93C0
:104F20005A961C925A971296ED91FC911397C401D0
:104F300062E070E01DC2F6012487358746875787F7
:104F4000D5011D968C9182FDFCC281FFFAC2C6017B
:104F5000B5010E94FB23F5016481758186819781EB
:104F60000E94D7206F5F7F4F8F4F9F4FD601529681
:104F70006D937D938D939C935597F501858584FF63
:104F800024C0C60160E140E00E946524D60112966B
:104F9000ED91FC911397882341F481E090E0119604
:104FA0009C938E935A961C9240C287E090E0D60163
:104FB00011969C938E9381E05A968C935A975B96A8
:104FC0001C92C40164E070E0D3C1C60162E140E01C
:104FD0000E946524882309F4D4C186E090E0D601BC
:104FE00011969C938E9385E05A968C935A975B9674
:104FF0001C92A0C2F601E288F38804891589D501C4
:1050000014966D917D918D919C9117970E94D72058
:10501000E616F7060807190731F0C60160E140E01F
:105020000E9465248EC2F60120813181C901069754
:10503000099788F4D5011D968C91867061F081E006
:1050400090E091838083128E0280F381E02DC40171
:1050500062E070E040C2F501858584FF72C22C30A9
:10506000310548F42730310508F043C026303105BA
:1050700009F095C10CC02D303105D9F12D30310525
:1050800008F478C12E30310509F089C140C1D5013D
:1050900018966D917D918D919C911B970E94D720C0
:1050A0009B01AC01F60184859585A685B78501969F
:1050B000A11DB11D281739074A075B0709F041C236
:1050C000D6011C962D933D934D935C931F9787E0DB
:1050D00090E011969C938E9381E05A968C935A9708
:1050E0001296ED91FC911397C40164E070E009956C
:1050F00056C1F50160857185828593850E94D72010
:105100007B018C01D6015F968D919C9190970E94B6
:10511000BB2CF60124853585468557852E153F0520
:105120004007510709F43BC1A0E0B0E0820F931F94
:10513000A41FB51F281739074A075B0738F42E1537
:105140003F054007510708F09BC00BC0821793072B
:10515000A407B50708F094C02E153F054007510776
:1051600030F08E159F05A007B10708F489C0E7014C
:10517000C21BD30BD6015F968D919C919097BE0177
:105180000E94CF2D9E0140E050E0F6018485958578
:10519000A685B785820F931FA41FB51F84879587A7
:1051A000A687B787808991898C179D0728F08C1B6B
:1051B0009D0B918B808B05C0D60151961C921E923F
:1051C0005097F501868597850E94D120D601599682
:1051D0009C938E9358975A963C915A97332349F152
:1051E0005B968C915B97882321F55D962C915D975A
:1051F0005C969C915C97931B822F869586958695ED
:10520000981B392F320F5D963C935D975E968C917B
:105210005E97282F26952695821B97FD9195890FDD
:105220005E968C935E97369536953695830F5C9691
:105230008C93F601138E0280F381E02DC40169E0A6
:1052400070E00995D6015F968D919C9190970E9490
:10525000BB2C892B49F0C60160E141E00E94652426
:10526000882309F09CC08DC0D6018D919C91119727
:10527000089711F481E091C081E0F601828F8FC020
:10528000E216F3060407150708F489C02F5F3F4FA5
:105290004F4F5F4FE216F3060407150779F5D60165
:1052A0008D919C91119789309105C1F48AE090E02D
:1052B00011969C938E9385E05A968C935A971C96E0
:1052C0008D919D910D90BC91A02D0196A11DB11DB8
:1052D000F60184879587A687B78761C08A309105D4
:1052E00009F45DC00B9751F48CE090E0D601119663
:1052F0009C938E9388E25A968C931CC1C60160E100
:1053000041E00E946524882309F01BC13AC0D60100
:105310005F968D919C9190970E94BB2C892B09F0F0
:1053200010C1F50160857185828593850E94D72023
:10533000D6011C962D913D914D915C911F972F5F49
:105340003F4F4F4F5F4F621773078407950709F070
:10535000F8C081E090E011969C938E935A961C922F
:105360005A971296ED91FC911397C40166E070E094
:105370000995E0C0C60160E140E00E9465248823F1
:1053800051F481E090E0F60191838083128E0280D7
:10539000F381E02D4AC085E0D6015A968C93F60140
:1053A000808191810797049708F05DC0D5011C9614
:1053B0008C9182958F70682F70E0660F771F660F53
:1053C000771F8301061B170B09F44DC06A0D7B1D67
:1053D000878D90A1A8010E944A2DEC019C0140E01C
:1053E00050E0F60182899389A489B589820F931FC1
:1053F000A41FB51F828B938BA48BB58B209709F4C8
:1054000099C0C60160E140E00E946524882379F4D8
:1054100081E090E0D60111969C938E935A961C924F
:105420005A971296ED91FC911397C40152C0F60160
:1054300080819181079751F4878D90A10E94BB2CA8
:10544000892B21F481E0D6015A968C93D6011296CD
:10545000ED91FC911397C40168E070E00995C017C5
:10546000D10708F467C0F501858580FF63C0D601C8
:105470002D913C911197C9010197029708F461C0E1
:105480002530310509F45DC052968D919D910D90A6
:10549000BC91A02D0196A11DB11DF601828B938BAD
:1054A000A48BB58BC60160E141E00E94652488238E
:1054B000A1F481E090E0D60111969C938E935A96C8
:1054C0001C92C6010E942521D6011296ED91FC91F5
:1054D000139761E070E0099534C0F60180819181F5
:1054E00089309105B1F08A30910518F4069710F1D2
:1054F00006C08A309105B1F00C97E1F418C08DE038
:1055000090E0D60111969C938E9381E05A968C93ED
:1055100019C08BE090E0F6019183808385E0828F53
:10552000138E08C08CE090E0D6018D939C9388E2A6
:10553000F601828F81E006C0C701B501A3010E9478
:10554000CF2580E0DF91CF911F910F91FF90EF90D9
:10555000DF90CF90BF90AF909F908F907F906F9093
:10556000089585EAE0EFF1E0DF011D928A95E9F701
:1055700085EC9AE260E070E00E949B3248EE53E0D6
:1055800060E070E00E94F93108952F923F924F92AF
:105590005F926F927F928F929F92BF92CF92DF9293
:1055A000EF92FF920F931F93CF93DF934C01C0EFC5
:1055B000D1E0A5E0BA2EF1E0CF2ED12CEEE04E2EB8
:1055C000512C79E0272E312C65E0662E712CC8C055
:1055D000088119810115110509F4C1C08A8D88233C
:1055E00009F4BDC081508A8F882309F0B8C0209784
:1055F00009F4B5C0CE010E9425217C0197FDAFC002
:105600000930110509F48FC00A30110580F4063005
:10561000110509F448C00730110508F04DC00130EC
:105620001105F1F00530110509F099C026C00C30C4
:10563000110509F48DC00D30110548F40A3011052B
:1056400009F47EC00B30110509F089C06CC00D3023
:10565000110509F45BC00E30110509F080C063C06C
:10566000CE0162E040E00E946524882319F419838A
:10567000088313C0798268823DC08B8D8F5F8B8FCA
:10568000863008F05DC0CE0162E040E00E946524F3
:10569000882309F053C0D982C882EA81FB81C701FF
:1056A00061E070E05BC08B8D8F5F8B8F863008F080
:1056B00047C0CE0162E1E9CF8F8D98A10E94BB2C3B
:1056C000892B69F08B8D8F5F8B8F8630C8F5198A97
:1056D000188ACE0160E141E00E94652440C08881C3
:1056E0009981089751F4CE0161E141E00E9465245F
:1056F00039822882BA8E1B8E32C0EA81FB81C701B3
:1057000067E070E0099581E08A8F29C0198A188ABC
:10571000CE0161E141E00E946524882309F4BBCFFA
:1057200059824882E7CF8B8D8F5F8B8F863040F414
:10573000198A188ACE0161E141E0A8CFBA8E0FC064
:10574000D982C882EA81FB81C70163E070E006C0AC
:10575000D982C882EA81FB8166E070E00995A19652
:1057600082E0C539D80709F033CFC40148EE53E0D1
:1057700060E070E00E94F931DF91CF911F910F91AD
:10578000FF90EF90DF90CF90BF909F908F907F9091
:105790006F905F904F903F902F900895A5E9B2E0F1
:1057A0008D919C911197892B49F5FD01E655FE4F8E
:1057B00080819181892B11F5CD01069611969C93DC
:1057C0008E931396FC93EE93129715961C921E924D
:1057D0001497A055BE4FB183A083A05BB140FD01DB
:1057E000E455FE4FAC5ABC4FB183A083A65AB140DA
:1057F00011961C921E92AE5AB14008C0AC5ABC4FD2
:1058000089E0AD33B80760F2A0E0B0E0CD010895C3
:10581000FC01009731F011821082E655FE4F118293
:1058200010820895FC01009719F420E030E002C0D6
:1058300024813581C9010895FC01009719F420E005
:1058400030E00AC02281338136962E1B3F0B3697FB
:1058500084819581281B390BC9010895FC01865567
:105860009E4F19F420E030E017C0E255FE4F408112
:105870005181069632912291EC5AF140281B390B46
:10588000241B350B6217730708F49B01E255FE4F8A
:10589000420F531F51834083C9010895EF92FF9235
:1058A0000F931F93CF93DF93FC018AEAE82E81E0E8
:1058B000F82EEE0EFF1EE114F10409F452C0A70108
:1058C0004A5F5F4FE255FE4F8081918112910291B4
:1058D000EC5AF140041B150B081B190B09F441C0CD
:1058E000892B19F4D7014D935C93E655FE4FC08187
:1058F000D181EA5AF140DF01A255BE4FC417D50746
:1059000019F48D919C9126C06D917C91E455FE4FC8
:1059100020813181EC5AF140CE01860F971F281764
:10592000390709F12C1B3D0B62177307B0F4D7013F
:1059300006C0899115968C93159761507040119609
:1059400061157105B1F7E655FE4F518340833496DA
:1059500080819181480F591F06C0AE01401B510B39
:1059600002C040E050E0CA01DF91CF911F910F913A
:10597000FF90EF900895FC018EEFE635F80719F4DB
:1059800020E030E004C0E255FE4F20813181C901A2
:105990000895FC0186559E4F19F420E030E00BC0BD
:1059A000E455FE4F069621913191281B390B8081D9
:1059B0009181281B390BC9010895FC01009731F032
:1059C00015821482E255FE4F118210820895EF92E3
:1059D000FF920F931F93CF93DF93DC01EB010097AE
:1059E00009F449C06115710509F445C04115510517
:1059F00009F443C0BC016A5F7F4F14962D913C911E
:105A0000159712968D919C911397861B970B821B6D
:105A1000930B8417950708F4AC01ED91FC91119755
:105A2000E20FF31F9A018D010A5F1F4F16C01296F5
:105A30008D919C911397E817F90730F07B01E81AD4
:105A4000F90AEE0DFF1D05C0E617F70710F4E00F89
:105A5000F11F89918193215030402115310539F78B
:105A600014968D919C911597840F951F15969C9374
:105A70008E93149702C040E050E0CA01DF91CF91AD
:105A80001F910F91FF90EF90089586559E4F0E94B1
:105A9000E72C08950E94E72C08950F931F93CF934E
:105AA000DF93DC01EB010097D1F161157105B9F1CC
:105AB00021153105B1F114966D917C91159746171A
:105AC000570768F5C901840F951F6817790718F4FF
:105AD0009B01241B350BED91FC911197E40FF51FF1
